:100000000C942A000C9447000C9447000C94470071
:100010000C9447000C9447000C9447000C948411F6
:100020000C9447000C9447000C9447000C94470034
:100030000C9447000C94F2070C9447000C94470072
:100040000C9447000C9447000C9447000C94470014
:100050000C94470011241FBECFE5D8E0DEBFCDBF12
:1000600011E0A0E6B0E0E0E1F1E602C005900D92FB
:10007000A439B107D9F717E0A4E9B1E001C01D9296
:10008000AE38B107E1F70E947F2F0C9486300C94B4
:100090000000EF92FF920F931F937B018C0120E0F1
:1000A00030E040E05FE40E94490388238CF0C801FF
:1000B000B70120E030E040E05FE40E94C1010E940F
:1000C000A9039B01AC01205030404040504806C07D
:1000D000C801B7010E94A9039B01AC01B901CA0183
:1000E0001F910F91FF90EF900895A0E0B0E0EBE733
:1000F000F0E00C940230DC012B01FA019C9192306B
:1001000008F439C1EB018881823008F433C194309E
:1001100069F4843009F02FC111969C91119789815F
:10012000981709F428C1A3E7B1E025C1843009F488
:1001300021C18230A9F4923009F01DC19A01AD01AC
:1001400088E0EA010990AE01E90109929E0181501F
:10015000C1F7E201898111969C918923818308C1AD
:10016000923009F407C112962D903C901397EB0141
:100170008A819B811496AD90BD90CD90DC901797AD
:10018000EC80FD800E811F819101281B390BB90184
:1001900037FF04C066277727621B730B6032710537
:1001A0000CF061C0121613066CF537014801062EDB
:1001B00004C096948794779467940A94D2F721E0C8
:1001C00030E040E050E004C0220F331F441F551FB1
:1001D0006A95D2F721503040404050402E213F21B7
:1001E00040235123211531054105510521F021E01E
:1001F00030E040E050E079018A01E628F72808293C
:1002000019293CC0232BD1F1260E371E350146019A
:10021000062E04C096948794779467940A94D2F734
:1002200021E030E040E050E004C0220F331F441FC3
:10023000551F6A95D2F721503040404050402A2146
:100240003B214C215D21211531054105510521F04E
:1002500021E030E040E050E059016A01A628B728CB
:10026000C828D9280BC0821593052CF01C01AA249C
:10027000BB24650103C0EE24FF24870111969C91E5
:10028000D20111968C91981709F445C0992339F041
:10029000A80197012A193B094C095D0906C0A6016E
:1002A00095012E193F09400B510B57FD08C01182D3
:1002B0003382228224833583468357831DC081E0A5
:1002C00081833382228288279927DC01821B930B4A
:1002D000A40BB50B84839583A683B7830DC0220F2F
:1002E000331F441F551F24833583468357838281E0
:1002F000938101979383828324813581468157813D
:10030000DA01C9010197A109B1098F5F9F4FAF4F72
:10031000BF4328F30BC0918333822282EA0CFB1C7B
:100320000C1D1D1DE482F5820683178383E0808304
:10033000248135814681578157FF1AC0C901AA27F8
:1003400097FDA095BA2F81709070A070B0705695EF
:10035000479537952795822B932BA42BB52B848318
:100360009583A683B7838281938101969383828349
:10037000DF0101C0D201CD01CDB7DEB7E2E10C94BF
:100380001E30A0E2B0E0E7ECF1E00C940E3069839F
:100390007A838B839C832D833E834F835887E9E048
:1003A000EE2EF12CEC0EFD1ECE010196B7010E943F
:1003B000D2048E010F5E1F4FCE010596B8010E9438
:1003C000D2048A8991E089278A8BC701B801AE01DE
:1003D000475E5F4F0E9475000E94FD03A096E6E015
:1003E0000C942A30A0E2B0E0E8EFF1E00C940E307B
:1003F00069837A838B839C832D833E834F835887C5
:10040000F9E0EF2EF12CEC0EFD1ECE010196B701A6
:100410000E94D2048E010F5E1F4FCE010596B801D7
:100420000E94D204C701B801AE01475E5F4F0E942F
:1004300075000E94FD03A096E6E00C942A30A0E22D
:10044000B0E0E5E2F2E00C94023069837A838B83BA
:100450009C832D833E834F835887CE010196BE0136
:10046000675F7F4F0E94D204CE010596BE016F5E8A
:100470007F4F0E94D2049985923088F0898982301A
:10048000C8F0943019F4823051F404C0843029F457
:10049000923081F483E791E0C6C0923049F420E0C5
:1004A0009A858A89981321E02A87CE010996BBC0D4
:1004B000823049F420E09A858A89981321E02A8BBA
:1004C000CE014196B0C02D843E844F8458886D88FB
:1004D0007E888F88988CEE24FF248701AA24BB2471
:1004E000650140E050E060E070E0E0E0F0E0C10174
:1004F00081709070892BE9F0E60CF71C081D191D1E
:100500009A01AB012A0D3B1D4C1D5D1D80E090E062
:10051000A0E0B0E0E614F7040805190520F481E036
:1005200090E0A0E0B0E0BA01A901480F591F6A1F8E
:100530007B1FAA0CBB1CCC1CDD1C97FE08C081E0F5
:1005400090E0A0E0B0E0A82AB92ACA2ADB2A3196B6
:10055000E032F10549F0660C771C881C991C569412
:10056000479437942794C3CFFA85EA892B893C892D
:100570008B859C85280F391F2E5F3F4F17C0CA01FE
:1005800081709070892B61F016950795F794E79428
:1005900080E090E0A0E0B0E8E82AF92A0A2B1B2BC3
:1005A00076956795579547952F5F3F4F77FDE7CF36
:1005B0000CC0440F551F661F771F17FD4160EE0CDE
:1005C000FF1C001F111F21503040403090E05907A0
:1005D00090E0690790E4790760F32B8F3C8FDB0193
:1005E000CA018F779070A070B07080349105A1051A
:1005F000B10561F447FD0AC0E114F10401051105DC
:1006000029F0405C5F4F6F4F7F4F40781A8EFE1786
:1006100011F081E08A8F4D8F5E8F6F8F78A383E01A
:10062000898FCE0149960E94FD03A096E2E10C94C9
:100630001E30A8E1B0E0EFE1F3E00C940E306983E6
:100640007A838B839C832D833E834F83588789E0F5
:10065000E82EF12CEC0EFD1ECE010196B7010E9492
:10066000D2048E010F5E1F4FCE010596B8010E9485
:10067000D2048985823040F08989823028F0C70110
:10068000B8010E944A0501C08FEF6896E6E00C941D
:100690002A30A8E1B0E0EFE4F3E00C940E30698377
:1006A0007A838B839C832D833E834F83588789E095
:1006B000E82EF12CEC0EFD1ECE010196B7010E9432
:1006C000D2048E010F5E1F4FCE010596B8010E9425
:1006D000D2048985823040F08989823028F0C701B0
:1006E000B8010E944A0501C08FEF6896E6E00C94BD
:1006F0002A30A8E1B0E0EFE7F3E00C940E30698314
:100700007A838B839C832D833E834F83588789E034
:10071000E82EF12CEC0EFD1ECE010196B7010E94D1
:10072000D2048E010F5E1F4FCE010596B8010E94C4
:10073000D2048985823040F08989823028F0C7014F
:10074000B8010E944A0501C081E06896E6E00C9479
:100750002A30ACE0B0E0EFEAF3E00C9412306983A9
:100760007A838B839C83CE010196BE016B5F7F4FA2
:100770000E94D2048D81823061F1823050F1843048
:1007800021F48E81882351F12EC02F81388537FDC9
:1007900020C06E812F3131051CF06623F9F023C093
:1007A0008EE190E0821B930B29853A854B855C8511
:1007B00004C056954795379527958A95D2F76623B5
:1007C000B1F050954095309521953F4F4F4F5F4F79
:1007D0000EC020E030E040E050E009C02FEF3FEFD6
:1007E0004FEF5FE704C020E030E040E050E8B9019F
:1007F000CA012C96E2E00C942E30DF92EF92FF9229
:100800000F931F93FC01E480F58006811781D1804E
:100810008081823048F480E090E0A0E1B0E0E82AF6
:10082000F92A0A2B1B2BA5C0843009F49FC0823003
:1008300021F4EE24FF24870105C0E114F104010531
:10084000110519F4E0E0F0E096C0628173819FEF3A
:10085000623879070CF05BC022E83FEF261B370BAC
:100860002A3131052CF020E030E040E050E02AC091
:10087000B801A701022E04C0769567955795479554
:100880000A94D2F781E090E0A0E0B0E004C0880FC5
:10089000991FAA1FBB1F2A95D2F70197A109B10979
:1008A0008E219F21A023B1230097A105B10521F03E
:1008B00081E090E0A0E0B0E09A01AB01282B392B59
:1008C0004A2B5B2BDA01C9018F779070A070B07052
:1008D00080349105A105B10539F427FF09C0205CDA
:1008E0003F4F4F4F5F4F04C0215C3F4F4F4F5F4F13
:1008F000E0E0F0E02030A0E03A07A0E04A07A0E402
:100900005A0710F0E1E0F0E079018A0127C0603871
:10091000710564F5FB01E158FF4FD801C7018F77DE
:100920009070A070B07080349105A105B10539F4C4
:10093000E7FE0DC080E490E0A0E0B0E004C08FE3EB
:1009400090E0A0E0B0E0E80EF91E0A1F1B1F17FFA1
:1009500005C016950795F794E794319687E01695AC
:100960000795F794E7948A95D1F705C0EE24FF2404
:100970008701EFEFF0E06E2F679566276795902F60
:100980009F77D794DD24D7948E2F8695492F462BB9
:10099000582F5D29B701CA011F910F91FF90EF9069
:1009A000DF900895FC01DB01408151812281622F9B
:1009B0006F7770E0221F2227221F9381892F880FD3
:1009C000822B282F30E0991F9927991F11969C930D
:1009D000119721153105A9F54115510561057105DD
:1009E00011F482E037C082E89FEF13969C938E93B8
:1009F00012979A01AB0167E0220F331F441F551F66
:100A00006A95D1F783E08C930DC0220F331F441FEA
:100A1000551F12968D919C911397019713969C9355
:100A20008E931297203080E0380780E0480780E4FA
:100A3000580758F314962D933D934D935C93179755
:100A400008952F3F310579F4411551056105710570
:100A500019F484E08C93089564FF03C081E08C93C3
:100A600012C01C9210C02F57304013963C932E9307
:100A7000129783E08C9387E0440F551F661F771F02
:100A80008A95D1F7706414964D935D936D937C9322
:100A9000179708951F93DC01FB019C91923008F495
:100AA00047C08081823008F443C0943051F41196DD
:100AB0001C91843099F58181682F70E0611B710968
:100AC0003FC0843021F0923031F48230B9F181811D
:100AD000882389F12DC011961C9111978230F1F075
:100AE00081811817D9F412962D913C911397828128
:100AF00093818217930794F028173907BCF0149656
:100B00008D919D910D90BC91A02D248135814681C0
:100B10005781281739074A075B0718F4112341F05A
:100B20000AC082179307A407B50740F4112319F0F0
:100B300061E070E005C06FEF7FEF02C060E070E041
:100B4000CB011F910895DF93CF93CDB7DEB72B97DD
:100B50000FB6F894DEBF0FBECDBF9F838E831D827C
:100B6000AAE2B0E0EAE2F0E080818F7E8C93AAE214
:100B7000B0E0EAE2F0E08081877F8C93EE81FF8134
:100B800080819181880F991F9C0140E050E080E0B6
:100B900092E1AAE7B0E0BC01CD010E94E02FDA01AA
:100BA000C90189839A83AB83BC83EE81FF818281F3
:100BB0008370282F30E03B872A878A859B85813088
:100BC000910509F44FC02A853B852230310509F48F
:100BD00058C08A859B85009709F061C0ABE2B0E000
:100BE000EBE2F0E080818E7F8C93EE81FF81828149
:100BF00082958F708170282F30E03987288788850B
:100C00009985009731F0288539852130310591F09B
:100C100046C089819A81AB81BC81689412F8B695EF
:100C2000A795979587951694D1F789839A83AB8377
:100C3000BC8335C0ABE2B0E0EBE2F0E080818260E3
:100C40008C9389819A81AB81BC81B695A795979544
:100C50008795B695A7959795879589839A83AB8352
:100C6000BC831DC0ABE2B0E0EBE2F0E080818E7FA0
:100C70008C9381E08D8381E060E041E00E94250853
:100C80000EC0ABE2B0E0EBE2F0E0808181608C93DB
:100C900081E08D8381E060E040E00E942508898149
:100CA0009A81AB81BC810197A109B10989839A839B
:100CB000AB83BC83E0E4F0E089819A81AB81BC81A5
:100CC000892F9A2FAB2FBB278F708083E9E2F0E04A
:100CD00089818083AAE2B0E0EAE2F0E08081806866
:100CE0008C93AAE2B0E0EE81FF81838186958770C4
:100CF000882F90E09595879595958795817081705F
:100D0000982F990F990F8C918B7F892B8C93A0E44E
:100D1000B0E0EE81FF818281869586958370882F71
:100D200090E082959295907F9827807F9827282F32
:100D30002068EE81FF81828182958695877081701F
:100D4000882F90E0880F991F880F991F880F991F8F
:100D5000282BEE81FF81838186958770882F90E014
:100D600083709070880F991F922F982BEE81FF81CE
:100D7000828182958695869583708170892B8C936C
:100D8000AAE2B0E0EE81FF81838181708170982FAB
:100D90009295907F8C918F7E892B8C93AAE2B0E004
:100DA000EE81FF818281881F8827881F8170982F9C
:100DB000990F990F990F8C91877F892B8C932B9684
:100DC0000FB6F894DEBF0FBECDBFCF91DF9108956F
:100DD000DF93CF93CDB7DEB7EAE2F0E0808186956E
:100DE000869586958170982FEAE2F0E08081829561
:100DF0008F708170892BCF91DF910895DF93CF930E
:100E0000CDB7DEB74BE250E02AE230E0A9E2B0E035
:100E1000E0E4F0E0108280818C938C91F901808372
:100E2000F9018081FA018083E0E4F0E080E88083CA
:100E3000AAE2B0E0EAE2F0E080818F778C93CF9174
:100E4000DF910895DF93CF9300D0CDB7DEB78983CC
:100E5000EBE2F0E080818072882339F0ECE2F0E090
:100E60008981808381E08A8301C01A828A810F9000
:100E70000F90CF91DF910895DF93CF9300D000D0F2
:100E8000CDB7DEB79B838A83EBE2F0E08081807888
:100E9000882369F0EBE2F0E080818983ECE2F0E006
:100EA0008081EA81FB81808381E08C8301C01C8288
:100EB0008C810F900F900F900F90CF91DF9108953C
:100EC000DF93CF930F92CDB7DEB7898389810E94DC
:100ED00022078823D9F30F90CF91DF910895DF93F4
:100EE000CF9300D0CDB7DEB79A8389830FC0E98155
:100EF000FA8180810E946007E981FA8180818332D2
:100F000051F089819A8101969A838983E981FA81D6
:100F10008081882361F70F900F90CF91DF91089522
:100F2000DF93CF9300D0CDB7DEB79A8389838981D1
:100F30009A810E943C078823D1F30F900F90CF91A4
:100F4000DF910895DF93CF9300D000D0CDB7DEB707
:100F50009B838A836C8319828981282F30E08A8160
:100F60009B81280F391F89818F5F8983C9010E9466
:100F700090079C8189818917E0F48981882F90E00E
:100F80009C01215030408A819B81FC01E20FF31FBC
:100F90008081882371F08981882F90E09C01215005
:100FA00030408A819B81FC01E20FF31F80818332F4
:100FB00099F60F900F900F900F90CF91DF910895B9
:100FC000DF93CF9300D0CDB7DEB79A838983898131
:100FD0009A8190939501809394010F900F90CF91F7
:100FE000DF9108951F920F920FB60F9211242F9345
:100FF0003F934F935F936F937F938F939F93AF93A1
:10100000BF93EF93FF93DF93CF93CDB7DEB780917C
:10101000940190919501009729F0E0919401F0914D
:1010200095010995CF91DF91FF91EF91BF91AF911C
:101030009F918F917F916F915F914F913F912F91F0
:101040000F900FBE0F901F901895DF93CF9300D095
:1010500000D00F92CDB7DEB789836A834B838A8134
:10106000883008F0D5C08981843008F0D1C08981EA
:10107000282F30E03D832C838C819D818130910528
:1010800009F443C02C813D81223031052CF48C8140
:101090009D81009771F0BCC02C813D8122303105CB
:1010A00009F45FC08C819D818330910509F485C06E
:1010B000AFC08B818130A1F4AAE3B0E0EAE3F0E0B5
:1010C0008081482F8A81282F30E081E090E0022E35
:1010D00002C0880F991F0A94E2F7842B8C9398C062
:1010E000AAE3B0E0EAE3F0E08081482F8A81282F6C
:1010F00030E081E090E0022E02C0880F991F0A9430
:10110000E2F7809584238C9383C08B818130A1F496
:10111000A7E3B0E0E7E3F0E08081482F8A81282F41
:1011200030E081E090E0022E02C0880F991F0A94FF
:10113000E2F7842B8C936CC0A7E3B0E0E7E3F0E028
:101140008081482F8A81282F30E081E090E0022EB4
:1011500002C0880F991F0A94E2F7809584238C932C
:1011600057C08B818130A1F4A4E3B0E0E4E3F0E068
:101170008081482F8A81282F30E081E090E0022E84
:1011800002C0880F991F0A94E2F7842B8C9340C009
:10119000A4E3B0E0E4E3F0E08081482F8A81282FC7
:1011A00030E081E090E0022E02C0880F991F0A947F
:1011B000E2F7809584238C932BC08B818130A1F43E
:1011C000A1E3B0E0E1E3F0E08081482F8A81282F9D
:1011D00030E081E090E0022E02C0880F991F0A944F
:1011E000E2F7842B8C9314C0A1E3B0E0E1E3F0E0DC
:1011F0008081482F8A81282F30E081E090E0022E04
:1012000002C0880F991F0A94E2F7809584238C937B
:101210000F900F900F900F900F90CF91DF91089546
:10122000DF93CF9300D000D00F92CDB7DEB7898384
:101230006A834B838A81883008F0D5C089818430E5
:1012400008F0D1C08981282F30E03D832C838C8128
:101250009D818130910509F443C02C813D8122306C
:1012600031052CF48C819D81009771F0BCC02C81DC
:101270003D812230310509F45FC08C819D8183302E
:10128000910509F485C0AFC08B818130A1F4ABE337
:10129000B0E0EBE3F0E08081482F8A81282F30E036
:1012A00081E090E0022E02C0880F991F0A94E2F7B5
:1012B000842B8C9398C0ABE3B0E0EBE3F0E080814B
:1012C000482F8A81282F30E081E090E0022E02C072
:1012D000880F991F0A94E2F7809584238C9383C02A
:1012E0008B818130A1F4A8E3B0E0E8E3F0E08081F5
:1012F000482F8A81282F30E081E090E0022E02C042
:10130000880F991F0A94E2F7842B8C936CC0A8E392
:10131000B0E0E8E3F0E08081482F8A81282F30E0B8
:1013200081E090E0022E02C0880F991F0A94E2F734
:10133000809584238C9357C08B818130A1F4A5E3E1
:10134000B0E0E5E3F0E08081482F8A81282F30E08B
:1013500081E090E0022E02C0880F991F0A94E2F704
:10136000842B8C9340C0A5E3B0E0E5E3F0E08081FE
:10137000482F8A81282F30E081E090E0022E02C0C1
:10138000880F991F0A94E2F7809584238C932BC0D1
:101390008B818130A1F4A2E3B0E0E2E3F0E0808150
:1013A000482F8A81282F30E081E090E0022E02C091
:1013B000880F991F0A94E2F7842B8C9314C0A2E340
:1013C000B0E0E2E3F0E08081482F8A81282F30E00E
:1013D00081E090E0022E02C0880F991F0A94E2F784
:1013E000809584238C930F900F900F900F900F9007
:1013F000CF91DF910895DF93CF9300D000D0CDB788
:10140000DEB789836A838A81883008F072C0898157
:10141000843008F06EC08981282F30E03C832B8314
:101420008B819C818130910549F12B813C81223057
:1014300031052CF48B819C81009761F05AC02B817F
:101440003C812230310571F18B819C818330910583
:10145000E9F14FC0ABE3B0E0EBE3F0E08081482F6F
:101460008A81282F30E081E090E0022E02C0880FB0
:10147000991F0A94E2F784278C933BC0A8E3B0E05D
:10148000E8E3F0E08081482F8A81282F30E081E076
:1014900090E0022E02C0880F991F0A94E2F7842779
:1014A0008C9327C0A5E3B0E0E5E3F0E08081482F0E
:1014B0008A81282F30E081E090E0022E02C0880F60
:1014C000991F0A94E2F784278C9313C0A2E3B0E03B
:1014D000E2E3F0E08081482F8A81282F30E081E02C
:1014E00090E0022E02C0880F991F0A94E2F7842729
:1014F0008C930F900F900F900F90CF91DF910895E4
:10150000DF93CF9300D000D00F92CDB7DEB78A83A0
:101510006B8319828B81883008F07DC08A8184308A
:1015200008F079C08A81282F30E03D832C834C81DC
:101530005D814130510571F18C819D818230910531
:1015400034F42C813D812115310569F064C04C8152
:101550005D8142305105A1F18C819D8183309105DF
:1015600009F444C058C0E9E3F0E08081282F30E05E
:101570008B81882F90E0A90102C0559547958A95E7
:10158000E2F7CA0181709070882309F444C081E0B9
:10159000898341C0E6E3F0E08081282F30E08B8131
:1015A000882F90E0A90102C0559547958A95E2F7EA
:1015B000CA0181709070882371F181E089832BC00A
:1015C000E3E3F0E08081282F30E08B81882F90E0EA
:1015D000A90102C0559547958A95E2F7CA01817025
:1015E00090708823C1F081E0898315C0E0E3F0E0CA
:1015F0008081282F30E08B81882F90E0A90102C0E4
:10160000559547958A95E2F7CA01817090708823B5
:1016100011F081E0898389810F900F900F900F90D6
:101620000F90CF91DF910895DF93CF9300D000D03A
:10163000CDB7DEB789836A838981843090F589814B
:10164000282F30E03C832B838B819C818130910556
:10165000D1F02B813C81223031052CF48B819C818F
:10166000009761F01EC02B813C812230310581F052
:101670008B819C818330910581F013C0EAE3F0E017
:101680008A8180830EC0E7E3F0E08A81808309C00D
:10169000E4E3F0E08A81808304C0E1E3F0E08A8142
:1016A00080830F900F900F900F90CF91DF9108954E
:1016B000DF93CF9300D000D0CDB7DEB789836A83A4
:1016C0008981843090F58981282F30E03C832B83F9
:1016D0008B819C8181309105D1F02B813C8122301E
:1016E00031052CF48B819C81009761F01EC02B8109
:1016F0003C812230310581F08B819C8183309105C2
:1017000081F013C0EBE3F0E08A8180830EC0E8E350
:10171000F0E08A81808309C0E5E3F0E08A8180837C
:1017200004C0E2E3F0E08A8180830F900F900F9075
:101730000F90CF91DF910895DF93CF9300D000D029
:10174000CDB7DEB78A8319828A81843090F58A8189
:10175000282F30E03C832B838B819C818130910545
:10176000D1F02B813C81223031052CF48B819C817E
:10177000009761F01EC02B813C812230310581F041
:101780008B819C818330910581F013C0E9E3F0E007
:10179000808189830EC0E6E3F0E08081898309C0FF
:1017A000E3E3F0E08081898304C0E0E3F0E080813E
:1017B000898389810F900F900F900F90CF91DF91C7
:1017C0000895DF93CF93CDB7DEB72E970FB6F89479
:1017D000DEBF0FBECDBF9E878D871E821D820E94F9
:1017E000091C80919601882329F40E94480D81E00C
:1017F000809396018D859E85009751F0809181019F
:10180000909182012D853E85820F931F9E878D8743
:101810008D859E85009709F4AFC08D859E8525E056
:101820008039920708F0A8C088E297E09A878987F4
:1018300080912807909129079C878B870AC08B8508
:101840009C859A878987EB85FC85808191819C871F
:101850008B87EB85FC85228133818D859E852817BA
:10186000390730F4EB85FC8580819181009739F749
:101870008B859C8547E08C32940709F47DC0E9850F
:10188000FA85208131818091810190918201820FBE
:10189000931F9E838D83EB85FC8580819181E985F3
:1018A000FA8591838083EB85FC85228133818D8548
:1018B0009E85281B390B8091810190918201880FB0
:1018C000991F8217930708F047C02B853C858D85AB
:1018D0009E85820F931F98878F83EB85FC852281DD
:1018E00033818D859E85A901481B590BCA01EF8163
:1018F000F88593838283EB85FC858D859E85938314
:101900008283EF81F885828193819A83898388E23B
:1019100097E09C838B8306C0EB81FC818081918161
:101920009C838B83EB81FC810190F081E02D2281EF
:10193000338189819A812817390770F3EB81FC8103
:1019400080819181EF81F88591838083EB81FC8197
:101950008F8198859183808320917F0130918001D0
:10196000EB85FC8582819381A901481B590BCA0133
:101970009093800180937F010E94151C8D819E8130
:101980002E960FB6F894DEBF0FBECDBFCF91DF917C
:101990000895DF93CF93CDB7DEB72A970FB6F894AB
:1019A000DEBF0FBECDBF9A87898789859A859887C4
:1019B0008F8389859A85009709F44FC080918101B2
:1019C0009091820122273327281B390B8F8198851C
:1019D000820F931F98878F838F8198859E838D8335
:1019E0000E94091CED81FE81828193819A83898303
:1019F00088E297E09C838B8306C0EB81FC81808129
:101A000091819C838B83EB81FC810190F081E02D9F
:101A10002281338189819A812817390770F3EB81FC
:101A2000FC8180819181ED81FE8191838083EB81B6
:101A3000FC818D819E8191838083ED81FE81228155
:101A4000338180917F0190918001820F931F909349
:101A5000800180937F010E94151C2A960FB6F8948E
:101A6000DEBF0FBECDBFCF91DF910895DF93CF933F
:101A7000CDB7DEB780917F0190918001CF91DF914A
:101A80000895DF93CF93CDB7DEB7CF91DF9108955F
:101A9000DF93CF9300D000D0CDB7DEB788E991E0D7
:101AA0009A83898389819A81909329078093280753
:101AB00010922B0710922A0780E995E090932F0748
:101AC00080932E0710922D0710922C0789819A81FE
:101AD0009C838B83EB81FC8180E995E093838283F7
:101AE000EB81FC818CE297E0918380830F900F90D3
:101AF0000F900F90CF91DF910895DF93CF9300D097
:101B0000CDB7DEB79A83898389819A810396E9816B
:101B1000FA8192838183E981FA818FEF9FEF948329
:101B2000838389819A810396E981FA8196838583EB
:101B300089819A810396E981FA8190878783E98177
:101B4000FA8110820F900F90CF91DF910895DF936B
:101B5000CF9300D0CDB7DEB79A838983E981FA812C
:101B6000118610860F900F90CF91DF910895DF932B
:101B7000CF9300D000D000D0CDB7DEB79C838B834D
:101B80007E836D83EB81FC81818192819A8389833D
:101B9000ED81FE8189819A8193838283E981FA8133
:101BA00084819581ED81FE8195838483E981FA8129
:101BB0000480F581E02D8D819E8193838283E9816C
:101BC000FA818D819E8195838483ED81FE818B8155
:101BD0009C8191878087EB81FC8180818F5FEB8185
:101BE000FC81808326960FB6F894DEBF0FBECDBF72
:101BF000CF91DF910895DF93CF93CDB7DEB72897CC
:101C00000FB6F894DEBF0FBECDBF9E838D8378875D
:101C10006F83EF81F885808191819A83898389819F
:101C20009A812FEF8F3F920739F4ED81FE818781F2
:101C300090859C838B8318C08D819E8103969C83A5
:101C40008B8306C0EB81FC81828193819C838B8393
:101C5000EB81FC810280F381E02D2081318189813B
:101C60009A818217930770F7EB81FC8182819381BF
:101C7000EF81F88593838283EF81F8850280F38179
:101C8000E02D8F81988595838483EF81F8858B8102
:101C90009C8195838483EB81FC818F8198859383DC
:101CA0008283EF81F8858D819E8191878087ED8188
:101CB000FE8180818F5FED81FE81808328960FB643
:101CC000F894DEBF0FBECDBFCF91DF910895DF93B3
:101CD000CF9300D000D0CDB7DEB79C838B83EB8150
:101CE000FC81808591859A838983EB81FC81A28127
:101CF000B381EB81FC818481958115969C938E93B1
:101D00001497EB81FC81A481B581EB81FC818281F8
:101D1000938113969C938E931297E981FA81218186
:101D200032818B819C812817390741F4EB81FC813A
:101D300084819581E981FA8192838183EB81FC81A1
:101D400011861086E981FA8180818150E981FA81CA
:101D50008083E981FA8180810F900F900F900F901E
:101D6000CF91DF910895DF93CF93CDB7DEB728975A
:101D70000FB6F894DEBF0FBECDBF9C838B837E83EE
:101D80006D8358874F83EB81FC8181E180838B8158
:101D90009C8101979C838B83EB81FC8182E2808311
:101DA0008B819C8101979C838B83EB81FC8183E3F6
:101DB00080838B819C8101979C838B838D819E8105
:101DC0009A8389838981EB81FC8180838B819C81CB
:101DD00001979C838B8389819A81892F99279A8384
:101DE00089838981EB81FC8180838B819C81019730
:101DF0009C838B83EB81FC8110828B819C8101977A
:101E00009C838B83EB81FC8180E880838B819C8128
:101E100001979C838B83EB81FC8110828B819C8159
:101E200001979C838B83EB81FC8182E080838B8193
:101E30009C8101979C838B83EB81FC8183E0808371
:101E40008B819C8101979C838B83EB81FC8184E057
:101E500080838B819C8101979C838B83EB81FC81A8
:101E600085E080838B819C8101979C838B83EB81B0
:101E7000FC8186E080838B819C8101979C838B838E
:101E8000EB81FC8187E080838B819C8101979C831F
:101E90008B83EB81FC8188E080838B819C8101971F
:101EA0009C838B83EB81FC8189E080838B819C8187
:101EB00001979C838B83EB81FC8180E180838B8104
:101EC0009C8101979C838B83EB81FC8181E18083E2
:101ED0008B819C8101979C838B83EB81FC8182E1C8
:101EE00080838B819C8101979C838B83EB81FC8118
:101EF00083E180838B819C8101979C838B83EB8121
:101F0000FC8184E180838B819C8101979C838B83FE
:101F1000EB81FC8185E180838B819C8101979C838F
:101F20008B83EB81FC8186E180838B819C8101978F
:101F30009C838B83EB81FC8187E180838B819C81F7
:101F400001979C838B83EB81FC8188E180838B816B
:101F50009C8101979C838B83EB81FC8189E1808349
:101F60008B819C8101979C838B83EB81FC8180E238
:101F700080838B819C8101979C838B83EB81FC8187
:101F800081E280838B819C8101979C838B83EB8191
:101F9000FC8182E280838B819C8101979C838B836F
:101FA000EB81FC8183E280838B819C8101979C8300
:101FB0008B838F8198859A8389838981EB81FC81CA
:101FC00080838B819C8101979C838B8389819A81FB
:101FD000892F99279A8389838981EB81FC8180836A
:101FE0008B819C8101979C838B83EB81FC8186E2B2
:101FF00080838B819C8101979C838B83EB81FC8107
:1020000087E280838B819C8101979C838B83EB810A
:10201000FC8188E280838B819C8101979C838B83E8
:10202000EB81FC8189E280838B819C8101979C8379
:102030008B83EB81FC8180E380838B819C81019782
:102040009C838B83EB81FC8181E380838B819C81EA
:1020500001979C838B838B819C8128960FB6F89483
:10206000DEBF0FBECDBFCF91DF910895DF93CF9339
:10207000CDB7DEB70E942811A0913007B09131078B
:10208000CD91CDBFDD91DEBFFF91EF91DF91CF917B
:10209000BF91AF919F918F917F916F915F914F9180
:1020A0003F912F911F910F91FF90EF90DF90CF9074
:1020B000BF90AF909F908F907F906F905F904F9068
:1020C0003F902F901F900F900FBE0F90089581E0CA
:1020D000CF91DF910895DF93CF93CDB7DEB7CF9146
:1020E000DF9108950F920FB6F8940F921F9211246A
:1020F0002F923F924F925F926F927F928F929F9218
:10210000AF92BF92CF92DF92EF92FF920F931F9305
:102110002F933F934F935F936F937F938F939F93EF
:10212000AF93BF93CF93DF93EF93FF93A0913007CB
:10213000B09131070DB60D920EB60D920E94EA1DB8
:10214000A0913007B0913107CD91CDBFDD91DEBFB9
:10215000FF91EF91DF91CF91BF91AF919F918F91BF
:102160007F916F915F914F913F912F911F910F91AF
:10217000FF90EF90DF90CF90BF90AF909F908F90A7
:102180007F906F905F904F903F902F901F900F9097
:102190000FBE0F9008950F920FB6F8940F921F92F2
:1021A00011242F923F924F925F926F927F928F9263
:1021B0009F92AF92BF92CF92DF92EF92FF920F93D6
:1021C0001F932F933F934F935F936F937F938F93BF
:1021D0009F93AF93BF93CF93DF93EF93FF93A09120
:1021E0003007B09131070DB60D920EB60D920E94D8
:1021F000051D882311F00E94EA1DA0913007B091BF
:102200003107CD91CDBFDD91DEBFFF91EF91DF9121
:10221000CF91BF91AF919F918F917F916F915F917E
:102220004F913F912F911F910F91FF90EF90DF9071
:10223000CF90BF90AF909F908F907F906F905F9066
:102240004F903F902F901F900F900FBE0F900895CA
:10225000DF93CF9300D000D000D0CDB7DEB780E4BD
:102260009FE1A0E0B0E08B839C83AD83BE838B8134
:102270009C81AD81BE81689415F8B695A795979518
:1022800087951694D1F78B839C83AD83BE838B8116
:102290009C81AD81BE810197A109B1098B839C838B
:1022A000AD83BE838B8189838B819C81AD81BE810F
:1022B000892F9A2FAB2FBB278B839C83AD83BE8343
:1022C0008B818A83EBE4F0E08A818083EAE4F0E0AA
:1022D000898180838BE08983EEE4F0E089818083CB
:1022E000E9E5F0E080818983898180618983E9E57E
:1022F000F0E08981808326960FB6F894DEBF0FBE8A
:10230000CDBFCF91DF9108950E94CB101895DF9338
:10231000CF9300D000D00F92CDB7DEB79C838B83D4
:102320006D838B819C819A8389830FB6F8940F9279
:10233000E981FA8140815181E981FA81838D282FD9
:1023400030E0E981FA81848D882F90E0BC01269FDE
:10235000C001279F900D369F900D1124840F951F6B
:10236000E981FA8193838283E981FA81128EE9817E
:10237000FA8180819181E981FA8195838483E98161
:10238000FA8140815181E981FA81838D882F90E023
:102390009C0121503040E981FA81848D882F90E0A2
:1023A000BC01269FC001279F900D369F900D1124E0
:1023B000840F951FE981FA8197838683E981FA81E9
:1023C0008FEF858FE981FA818FEF868F8D8188234A
:1023D00079F4E981FA8180858823A1F089819A8145
:1023E00008960E94A91E882369F00E9472100AC0F4
:1023F00089819A8108960E947D0D89819A814196F2
:102400000E947D0D0F900FBE81E00F900F900F90F6
:102410000F900F90CF91DF9108950F931F93DF934B
:10242000CF93CDB7DEB729970FB6F894DEBF0FBEB6
:10243000CDBF8F83688749878885882319F41C82DC
:102440001B8210C08F81282F30E08885882F90E074
:10245000AC01249FC001259F900D349F900D112445
:102460009C838B838B819C814F960E94E10B9E8382
:102470008D838D819E81009781F08D819E814F9605
:102480009A83898329813A81ED81FE818F816885D4
:10249000A90129858F010E945A128D819E8129965A
:1024A0000FB6F894DEBF0FBECDBFCF91DF911F9165
:1024B0000F9108950F931F93DF93CF93CDB7DEB79E
:1024C00027970FB6F894DEBF0FBECDBF89836A830E
:1024D0005C834B832D831F830E838A81882339F489
:1024E0008E819F81EE81FF819183808306C08B81E5
:1024F0009C81EE81FF8191838083EE81FF818981C0
:10250000838FEE81FF818A81848F8E819F8161E03C
:102510000E94871127960FB6F894DEBF0FBECDBF7D
:10252000CF91DF911F910F910895DF93CF9300D04A
:10253000CDB7DEB79A83898389819A810097A1F00C
:10254000E981FA8113821282E981FA811182108273
:10255000E981FA81168289819A8160E070E040E029
:1025600050E020E00E94D9120F900F90CF91DF91A0
:102570000895DF93CF9300D000D00F92CDB7DEB790
:102580008D8381E08A8319828A8169814D810E94CD
:102590000D129C838B838B819C810E9495128B8171
:1025A0009C810F900F900F900F900F90CF91DF9123
:1025B0000895DF93CF93CDB7DEB72F970FB6F8947A
:1025C000DEBF0FBECDBF998788877B876A875D870F
:1025D0004C872E871C82888599859A8389830FB6BC
:1025E000F8940F92E981FA81928DE981FA81838DC5
:1025F000981718F08E85823011F589819A812A8585
:102600003B85B9014E850E940D168B83E981FA81C5
:102610008189882351F089819A8141960E94A91E5F
:10262000882341F00E94721005C08B81882311F02D
:102630000E9472100F900FBE81E08F875CC08C8566
:102640009D85009721F40F900FBE1F8654C08C818A
:10265000882331F4CE0105960E94791F81E08C8396
:102660000F900FBE0E94091C0FB6F8940F92E981DB
:10267000FA81858D8F3F19F4E981FA81158EE98100
:10268000FA81868D8F3F19F4E981FA81168E0F90B9
:102690000FBECE0105969E01245F3F4FB9010E94F7
:1026A000921F882309F589819A810E9494178823B3
:1026B000A1F089819A8108962C853D85B9010E94F7
:1026C000571E89819A810E940C170E94151C88232D
:1026D00009F085CF0E94721082CF89819A810E9471
:1026E0000C170E94151C7BCF89819A810E940C17C0
:1026F0000E94151C1F868F852F960FB6F894DEBF9B
:102700000FBECDBFCF91DF910895DF93CF93CDB7AB
:10271000DEB72C970FB6F894DEBF0FBECDBF9F83F8
:102720008E83798768875B874A872C878E819F8114
:102730009B838A831C82EA81FB81928DEA81FB81E3
:10274000838D981718F08C85823061F5EA81FB81C2
:10275000868D89838A819B8128853985B9014C853D
:102760000E940D1689818F3FA9F4EA81FB8181893E
:102770008823A9F08A819B8141960E94A91E882303
:1027800071F08A859B85009751F0EA85FB8581E091
:10279000808305C089818F5FEA81FB81868F81E01C
:1027A0008D8301C01D828D812C960FB6F894DEBFFB
:1027B0000FBECDBFCF91DF910895DF93CF93CDB7FB
:1027C000DEB72A970FB6F894DEBF0FBECDBF98874D
:1027D0008F837A8769878F8198859C838B831D82FD
:1027E000EB81FC81828D8A83EB81FC81938D8A81D0
:1027F000891748F5EB81FC81868D89838A818F5FFB
:10280000EB81FC81828F89818F3FA9F4EB81FC8170
:1028100081898823A9F08B819C8141960E94A91E01
:10282000882371F089859A85009751F0E985FA85AA
:1028300081E0808305C089818F5FEB81FC81868F79
:1028400081E08E8301C01E828E812A960FB6F89495
:10285000DEBF0FBECDBFCF91DF910895DF93CF9341
:10286000CDB7DEB761970FB6F894DEBF0FBECDBF10
:102870009B878A877D876C875F874E87288B1E8220
:102880008A859B859B838A830FB6F8940F92EA8191
:10289000FB81828D89838981882309F449C0EA817B
:1028A000FB81868197819D838C838A819B812C8586
:1028B0003D85B9010E94C5168889882301F5898163
:1028C0008150EA81FB81828FEA81FB818081918145
:1028D000009731F40E94BE21EA81FB8193838283B9
:1028E000EA81FB8180858823F1F08A819B810896AB
:1028F0000E94A91E8823B9F00E94721014C0EA81B8
:10290000FB818C819D8197838683EA81FB8181890C
:10291000882349F08A819B8141960E94A91E8823C1
:1029200011F00E9472100F900FBE81E0898B74C06D
:102930008E859F85009721F40F900FBE198A6CC079
:102940008E81882331F4CE0107960E94791F81E0A1
:102950008E830F900FBE0E94091C0FB6F8940F9241
:10296000EA81FB81858D8F3F19F4EA81FB81158E09
:10297000EA81FB81868D8F3F19F4EA81FB81168EF7
:102980000F900FBECE0107969E01225F3F4FB90107
:102990000E94921F882391F58A819B810E945F1774
:1029A000882329F1EA81FB8180819181009759F484
:1029B0000FB6F8940F92EA81FB81828193810E9485
:1029C0009A200F900FBE8A819B8141962E853F856C
:1029D000B9010E94571E8A819B810E940C170E9498
:1029E000151C882309F050CF0E9472104DCF8A81A8
:1029F0009B810E940C170E94151C46CF8A819B81E7
:102A00000E940C170E94151C8A819B810E945F17EF
:102A1000882309F439CF198A898961960FB6F89409
:102A2000DEBF0FBECDBFCF91DF910895DF93CF936F
:102A3000CDB7DEB72C970FB6F894DEBF0FBECDBF73
:102A400098878F837A8769875C874B878F81988582
:102A50009C838B831D82EB81FC81828D8A838A819A
:102A6000882381F1EB81FC81858D89838B819C8119
:102A700029853A85B9010E94C5168A818150EB816A
:102A8000FC81828F89818F3FA9F4EB81FC81808555
:102A90008823A9F08B819C8108960E94A91E882317
:102AA00071F08B859C85009751F0EB85FC8581E06A
:102AB000808305C089818F5FEB81FC81858F81E0F8
:102AC0008E8301C01E828E812C960FB6F894DEBFD5
:102AD0000FBECDBFCF91DF910895DF93CF93CDB7D8
:102AE000DEB72A970FB6F894DEBF0FBECDBF98872A
:102AF0008F837A8769878F8198859A8389831D82DE
:102B0000E981FA81828D8823B1F0E981FA81868199
:102B100097819C838B8389819A8129853A85B90124
:102B20000E94C516E981FA818B819C8197838683F7
:102B300081E08E8301C01E828E812A960FB6F894A2
:102B4000DEBF0FBECDBFCF91DF910895DF93CF934E
:102B500000D00F92CDB7DEB79B838A830FB6F8946F
:102B60000F92EA81FB81828D89830F900FBE89814C
:102B70000F900F900F90CF91DF910895DF93CF9337
:102B800000D000D00F92CDB7DEB79D838C838C81AF
:102B90009D819A8389830FB6F8940F92E981FA8117
:102BA000938DE981FA81828D292F281B822F8B83B7
:102BB0000F900FBE8B810F900F900F900F900F9082
:102BC000CF91DF910895DF93CF9300D00F92CDB7CF
:102BD000DEB79B838A83EA81FB81828D8983898129
:102BE0000F900F900F90CF91DF910895DF93CF93C7
:102BF00000D000D0CDB7DEB79C838B838B819C81C6
:102C00009A83898389819A810E94C90C0F900F90C1
:102C10000F900F90CF91DF910895DF93CF93CDB7B1
:102C2000DEB727970FB6F894DEBF0FBECDBF9C83EB
:102C30008B837E836D834F831A82EB81FC81828D2F
:102C40008983EB81FC81848D882399F4EB81FC815D
:102C500080819181009709F089C0EB81FC8182819C
:102C600093810E9425218A83EB81FC811382128249
:102C70007DC08F81882399F5EB81FC81648175810A
:102C8000EB81FC81848D482F50E02D813E81CB016A
:102C9000B9010E943930EB81FC8124813581EB81BF
:102CA000FC81848D882F90E0820F931FEB81FC8143
:102CB00095838483EB81FC8124813581EB81FC81C8
:102CC000828193812817390708F450C0EB81FC8179
:102CD00080819181EB81FC819583848347C0EB8166
:102CE000FC8166817781EB81FC81848D482F50E0E7
:102CF0002D813E81CB01B9010E943930EB81FC81ED
:102D000026813781EB81FC81848D882F90E090951E
:102D100081959F4F820F931FEB81FC819783868360
:102D2000EB81FC8126813781EB81FC81808191815F
:102D30002817390790F4EB81FC8122813381EB81E4
:102D4000FC81848D882F90E0909581959F4F820F14
:102D5000931FEB81FC81978386838F81823031F4CE
:102D60008981882319F089818150898389818F5FC6
:102D7000EB81FC81828F8A8127960FB6F894DEBFA3
:102D80000FBECDBFCF91DF910895DF93CF9300D0D9
:102D900000D0CDB7DEB79A8389837C836B83E981CA
:102DA000FA81848D882389F1E981FA81268137812E
:102DB000E981FA81848D882F90E0820F931FE98149
:102DC000FA8197838683E981FA8126813781E981B7
:102DD000FA81828193812817390740F0E981FA81CD
:102DE00080819181E981FA8197838683E981FA81E3
:102DF00046815781E981FA81848D282F30E08B81CB
:102E00009C81BA01A9010E9439300F900F900F9058
:102E10000F90CF91DF910895DF93CF9300D000D032
:102E2000CDB7DEB79C838B830FB6F8940F92EB81FE
:102E3000FC81868D8A8311C0EB81FC818189882386
:102E400079F08B819C8141960E94A91E882311F004
:102E50000E94FF1F8A8181508A838A81181664F339
:102E6000EB81FC818FEF868F0F900FBE0FB6F89429
:102E70000F92EB81FC81858D898311C0EB81FC81F0
:102E80008085882379F08B819C8108960E94A91EF9
:102E9000882311F00E94FF1F8981815089838981D5
:102EA000181664F3EB81FC818FEF858F0F900FBEB6
:102EB0000F900F900F900F90CF91DF910895DF93B7
:102EC000CF9300D00F92CDB7DEB79B838A830FB626
:102ED000F8940F92EA81FB81828D882319F481E0B6
:102EE000898301C019820F900FBE89810F900F90C6
:102EF0000F90CF91DF910895DF93CF9300D00F9281
:102F0000CDB7DEB79B838A83EA81FB81828D8823DC
:102F100019F481E0898301C0198289810F900F9093
:102F20000F90CF91DF910895DF93CF9300D00F9250
:102F3000CDB7DEB79B838A830FB6F8940F92EA81F0
:102F4000FB81928DEA81FB81838D981719F481E0D2
:102F5000898301C019820F900FBE89810F900F9055
:102F60000F90CF91DF910895DF93CF9300D00F9210
:102F7000CDB7DEB79B838A83EA81FB81928DEA819C
:102F8000FB81838D981719F481E0898301C0198230
:102F900089810F900F900F90CF91DF9108958F92BC
:102FA0009F92AF92BF92CF92DF92EF92FF920F93D8
:102FB0001F93DF93CF93CDB7DEB760970FB6F8942A
:102FC000DEBF0FBECDBF9F838E83798768875B8707
:102FD0004A873D872C870E87F88AEF868A859B85EE
:102FE0000E94E10B9A83898389819A810097B1F0CD
:102FF00083E290E00E94E10B9D838C838C819D8114
:10300000009739F0EC81FD8189819A81908F878BBF
:1030100007C089819A810E94C90C02C01D821C824E
:103020008C819D810097E9F08A859B859C0140E019
:1030300050E08E819F8168857985EC85FD85AF851F
:10304000B889AC80BD808F01EE846D0188249924FD
:103050000E9447188C819D810E94021981E08B8318
:1030600002C08FEF8B838B8160960FB6F894DEBF22
:103070000FBECDBFCF91DF911F910F91FF90EF90C9
:10308000DF90CF90BF90AF909F908F9008958F92D8
:103090009F92AF92BF92CF92DF92EF920F931F93C6
:1030A000DF93CF93CDB7DEB764970FB6F894DEBF4A
:1030B0000FBECDBF9D838C837F836E832887398726
:1030C0004A875B871D870C87EE86D88ACF86BA8AA7
:1030D000A98A9C8A8B8AE989FA892789308D888513
:1030E00099850197820F931F9B838A83198221C040
:1030F0008981482F50E08981282F30E08E819F817F
:10310000FC01E20FF31F208189899A89840F951FA2
:10311000FC01799620838981282F30E08E819F8160
:10312000FC01E20FF31F8081882331F089818F5FDA
:10313000898389818330E0F2E989FA89138E8E854B
:10314000833010F082E08E87E989FA898E85868B3C
:10315000E989FA898E85848FE989FA89158E8989AA
:103160009A8902960E94A70D89899A890C960E94D5
:10317000A70DE989FA8989899A89918780878E853F
:10318000282F30E083E090E0821B930BE989FA89D5
:1031900095878487E989FA8989899A89938B828BB3
:1031A000E989FA89168E178E10A211A2E989FA8987
:1031B00012A28A819B812C813D814C855D85B9015C
:1031C0000E94B30EE989FA89918380838F8598895B
:1031D000009731F0EF85F88989899A8991838083F6
:1031E00064960FB6F894DEBF0FBECDBFCF91DF91CE
:1031F0001F910F91EF90DF90CF90BF90AF909F9075
:103200008F900895DF93CF9300D0CDB7DEB79A8328
:1032100089830FB6F8940F92809132078F5F809365
:1032200032078091300790913107009769F48981C6
:103230009A819093310780933007809132078130D3
:10324000B9F40E94192014C080913607882381F4B4
:10325000E0913007F09131079689E981FA818689FA
:10326000891730F089819A819093310780933007D4
:1032700080913A078F5F80933A07E981FA819689B6
:1032800080913507891728F4E981FA81868980932E
:103290003507E981FA818689282F30E0C901880F36
:1032A000991F880F991F880F991F820F931FAC01D8
:1032B000405C584F89819A819C012E5F3F4FCA0123
:1032C000B9010E94B70D0F900FBE80913607882379
:1032D00061F0E0913007F09131079689E981FA8138
:1032E0008689981710F40E9472100F900F90CF915A
:1032F000DF910895DF93CF9300D00F92CDB7DEB763
:103300009B838A8319828A819B81009751F00E9456
:10331000091C8A819B8160E00E9480250E94151C07
:1033200089838981882311F40E9472100F900F9075
:103330000F90CF91DF910895DF93CF93CDB7DEB794
:103340002A970FB6F894DEBF0FBECDBF9F838E8342
:10335000688719828885833010F082E088870FB6ED
:10336000F8940F928E819F81009739F480913007F5
:10337000909131079A87898704C08E819F819A87AF
:10338000898789859A859D838C83EC81FD81848DD5
:103390008B839B818885981709F48DC098858B81D4
:1033A0008917A0F420913007309131078C819D81DD
:1033B00082179307B1F0E0913007F09131079689B9
:1033C0008885891770F081E089830BC020913007D0
:1033D000309131078C819D818217930711F481E030
:1033E0008983EC81FD8186898A83EC81FD81948DBE
:1033F000EC81FD818689981721F4EC81FD81888517
:10340000868BEC81FD818885848FEC81FD818485AC
:10341000958599235CF08885282F30E083E090E043
:10342000821B930BEC81FD8195878487EC81FD8164
:10343000428553858A81282F30E0C901880F991F62
:10344000880F991F880F991F820F931F805C984FD8
:103450004817590759F58C819D8102960E94670E85
:10346000EC81FD81968980913507891728F4EC81DC
:10347000FD81868980933507EC81FD818689282F1F
:1034800030E0C901880F991F880F991F880F991F75
:10349000820F931FAC01405C584F8C819D819C0131
:1034A0002E5F3F4FCA01B9010E94B70D8981882361
:1034B00011F00E9472100F900FBE2A960FB6F8946A
:1034C000DEBF0FBECDBFCF91DF910895DF93CF93C5
:1034D00000D000D000D0CDB7DEB79C838B830FB671
:1034E000F8940F928B819C81009739F4809130077A
:1034F000909131079E838D8304C08B819C819E8334
:103500008D838D819E819A83898389819A81029698
:103510000E94670EE981FA8184899589009729F0D4
:1035200089819A810C960E94670E89819A819C01FB
:103530002E5F3F4F8AE797E0B9010E94B70D0F90C9
:103540000FBE80913607882339F00FB6F8940F929A
:103550000E945D200F900FBE2091300730913107FF
:1035600089819A8182179307A1F480913607882375
:1035700019F00E9472100DC090917A078091320765
:10358000981729F4109231071092300702C00E9458
:10359000EA1D26960FB6F894DEBF0FBECDBFCF91C1
:1035A000DF910895DF93CF9300D000D00F92CDB775
:1035B000DEB79D838C831B828C819D819A83898356
:1035C000E981FA818285938527E08A37920781F421
:1035D000E981FA818489958927E08137920741F052
:1035E000E981FA8184899589009711F481E08B83C0
:1035F0008B810F900F900F900F900F90CF91DF91D4
:103600000895DF93CF9300D000D0CDB7DEB79C8371
:103610008B838B819C819A83898389819A8100978E
:1036200009F44CC0209130073091310789819A818B
:103630008217930709F442C00FB6F8940F9289815C
:103640009A810E94D21A8823B9F189819A810296BF
:103650000E94670EE981FA81968980913507891762
:1036600028F4E981FA81868980933507E981FA8116
:103670008689282F30E0C901880F991F880F991F6C
:10368000880F991F820F931FAC01405C584F8981AE
:103690009A819C012E5F3F4FCA01B9010E94B70D6C
:1036A000E981FA819689E0913007F09131078689A6
:1036B000981710F00E9472100F900FBE0F900F908D
:1036C0000F900F90CF91DF910895DF93CF9300D0AB
:1036D00000D000D0CDB7DEB79E838D831C828D8154
:1036E0009E819B838A8319828A819B810E94D21A40
:1036F000882309F446C080913F078823C1F5EA81F9
:10370000FB819689E0913007F091310786899817FF
:1037100010F081E08C838A819B8102960E94670E63
:10372000EA81FB81968980913507891728F4EA811F
:10373000FB81868980933507EA81FB818689282F62
:1037400030E0C901880F991F880F991F880F991FB2
:10375000820F931FAC01405C584F8A819B819C0172
:103760002E5F3F4FCA01B9010E94B70D0AC08A817E
:103770009B819C01245F3F4F81E797E0B9010E9444
:10378000B70D8C8126960FB6F894DEBF0FBECDBF65
:10379000CF91DF910895EF92FF920F93DF93CF9334
:1037A0000F92CDB7DEB789E090E220E630E0EDE39E
:1037B000F7E0B90140E550E020E030E000E07F01B3
:1037C0000E94CF1789838981813081F4F8948FEF2B
:1037D0009FEF90933C0780933B0781E080933607EF
:1037E00010923407109233070E9436100F90CF9139
:1037F000DF910F91FF90EF900895DF93CF93CDB7B6
:10380000DEB7F894109236070E946B10CF91DF91CB
:103810000895DF93CF93CDB7DEB780913F078F5FD9
:1038200080933F07CF91DF910895DF93CF9300D02E
:1038300000D0CDB7DEB71C821B821A820FB6F89477
:103840000F9280913F07815080933F0780913F07FF
:10385000882309F073C080913207882309F46EC071
:1038600045C0E0917607F0917707868197819C8328
:103870008B838B819C810C960E94670E8B819C812F
:1038800002960E94670EEB81FC8196898091350734
:10389000891728F4EB81FC81868980933507EB81B9
:1038A000FC818689282F30E0C901880F991F880F75
:1038B000991F880F991F820F931FAC01405C584FCE
:1038C0008B819C819C012E5F3F4FCA01B9010E94F0
:1038D000B70DEB81FC819689E0913007F0913107BB
:1038E0008689981718F081E08093380780917107D6
:1038F000882309F0B6CF8B819C81009711F00E943C
:103900005D208091370789838981882379F00E941F
:10391000051D882319F081E0809338078981815043
:1039200089838981882399F7109237078091380716
:10393000882321F081E08A830E9472100F900FBECD
:103940008A810F900F900F900F90CF91DF91089583
:10395000DF93CF9300D0CDB7DEB70FB6F8940F92B8
:1039600080913307909134079A8389830F900FBE1B
:1039700089819A810F900F90CF91DF910895DF9305
:10398000CF9300D00F92CDB7DEB719828091330765
:10399000909134079B838A838A819B810F900F903B
:1039A0000F90CF91DF910895DF93CF93CDB7DEB71E
:1039B00080913207CF91DF910895DF93CF9300D0AC
:1039C00000D000D0CDB7DEB79C838B838B819C81E8
:1039D000009739F480913007909131079E838D8351
:1039E00004C08B819C819E838D838D819E819A836F
:1039F000898389819A81499626960FB6F894DEBF0D
:103A00000FBECDBFCF91DF910895DF93CF93CDB798
:103A1000DEB729970FB6F894DEBF0FBECDBF1D826B
:103A200080913F07882309F0C0C0809133079091AF
:103A3000340701969C838B838B819C819093340700
:103A4000809333078B819C810097D9F480916D0717
:103A500090916E079A83898380916F079091700788
:103A600090936E0780936D0789819A819093700778
:103A700080936F07809139078F5F809339070E9489
:103A80005D2020913B0730913C078B819C81821700
:103A9000930708F471C0E0916D07F0916E07808183
:103AA000882339F48FEF9FEF90933C0780933B0777
:103AB00063C0E0916D07F0916E070580F681E02DFF
:103AC0008681978199878887E885F98582819381A6
:103AD0009F838E832B813C818E819F81281739079C
:103AE00038F48E819F8190933C0780933B0744C0BC
:103AF0008885998502960E94670EE885F9858489F4
:103B00009589009729F0888599850C960E94670E03
:103B1000E885F985968980913507891728F4E88525
:103B2000F985868980933507E885F9858689282F68
:103B300030E0C901880F991F880F991F880F991FBE
:103B4000820F931FAC01405C584F888599859C017A
:103B50002E5F3F4FCA01B9010E94B70DE885F98574
:103B60009689E0913007F09131078689981708F41B
:103B700092CF81E08D838FCFE0913007F0913107B4
:103B80008689282F30E0C901880F991F880F991F57
:103B9000880F991F820F931FFC01E05CF84F808112
:103BA000823040F081E08D8305C0809137078F5FC0
:103BB0008093370780913807882311F081E08D8347
:103BC0008D8129960FB6F894DEBF0FBECDBFCF9181
:103BD000DF910895DF93CF9300D00F92CDB7DEB77A
:103BE00080913F07882321F081E08093380759C0F6
:103BF00010923807809135078B8303C08B818150E9
:103C00008B838B81282F30E0C901880F991F880F83
:103C1000991F880F991F820F931FFC01E05CF84FDA
:103C20008081882359F38B81282F30E0C901880FC8
:103C3000991F880F991F880F991F820F931F805C0F
:103C4000984F9A838983E981FA810180F281E02D7E
:103C500082819381E981FA8192838183E981FA816A
:103C60002181328189819A8103962817390759F475
:103C7000E981FA810180F281E02D82819381E981DD
:103C8000FA8192838183E981FA810180F281E02DBA
:103C90008681978190933107809330078B81809341
:103CA00035070F900F900F90CF91DF910895DF931C
:103CB000CF9300D000D0CDB7DEB79A8389837C83C1
:103CC0006B8380913007909131079C01245F3F4FB7
:103CD00089819A81B9010E94FB0D8B819C8161E0F1
:103CE0000E9480250F900F900F900F90CF91DF9141
:103CF0000895DF93CF9300D000D000D0CDB7DEB7CA
:103D00009A8389837C836B835E834D83E091300744
:103D1000F09131078B819C81906895878487809191
:103D20003007909131079C01245F3F4F89819A8130
:103D3000B9010E94B70D8D819E8161E00E948025AE
:103D400026960FB6F894DEBF0FBECDBFCF91DF91A0
:103D50000895DF93CF9300D000D00F92CDB7DEB798
:103D60009D838C83EC81FD810580F681E02D868129
:103D700097819B838A838A819B810C960E94670E20
:103D800080913F07882361F58A819B8102960E947A
:103D9000670EEA81FB81968980913507891728F49F
:103DA000EA81FB81868980933507EA81FB818689D8
:103DB000282F30E0C901880F991F880F991F880F9D
:103DC000991F820F931FAC01405C584F8A819B81E1
:103DD0009C012E5F3F4FCA01B9010E94B70D0AC076
:103DE0008A819B819C01245F3F4F81E797E0B90165
:103DF0000E94B70DEA81FB819689E0913007F0912E
:103E000031078689891730F481E0898381E08093C6
:103E1000380701C0198289810F900F900F900F9081
:103E20000F90CF91DF910895DF93CF93CDB7DEB799
:103E300027970FB6F894DEBF0FBECDBF9D838C834E
:103E40007F836E838E819F819068EC81FD81918359
:103E50008083EC81FD81868197819B838A838C811D
:103E60009D810E94670E8A819B8102960E94670E47
:103E7000EA81FB81968980913507891728F4EA81C8
:103E8000FB81868980933507EA81FB818689282F0B
:103E900030E0C901880F991F880F991F880F991F5B
:103EA000820F931FAC01405C584F8A819B819C011B
:103EB0002E5F3F4FCA01B9010E94B70DEA81FB8115
:103EC0009689E0913007F09131078689891730F49F
:103ED00081E0898381E08093380701C0198289815C
:103EE00027960FB6F894DEBF0FBECDBFCF91DF91FE
:103EF0000895DF93CF9300D0CDB7DEB79A8389833F
:103F000080913907E981FA8180838091330790910C
:103F10003407E981FA81928381830F900F90CF91CA
:103F2000DF910895DF93CF93CDB7DEB727970FB614
:103F3000F894DEBF0FBECDBF9D838C837F836E83DD
:103F40000FB6F8940F9280913307909134079A83BB
:103F50008983EE81FF81808191812FEF8F3F9207CE
:103F600011F41B8240C0EC81FD8190818091390762
:103F7000981761F0EC81FD812181328189819A81DC
:103F80008217930718F081E08B832DC0EC81FD81AF
:103F90002181328189819A81AC01421B530B9A01A4
:103FA000EE81FF818081918128173907D0F4EE815D
:103FB000FF8140815181EC81FD81218132818981A4
:103FC0009A81B901681B790BCB01840F951FEE8193
:103FD000FF81918380838C819D810E94791F1B8248
:103FE00002C081E08B830F900FBE8B8127960FB6A6
:103FF000F894DEBF0FBECDBFCF91DF910895DF9360
:10400000CF93CDB7DEB781E080933807CF91DF91B2
:104010000895DF93CF9300D0CDB7DEB79A8389831D
:104020000E945620809140078230D0F30E94721087
:10403000F7CFDF93CF930F92CDB7DEB7198213C0BE
:104040008981282F30E0C901880F991F880F991F97
:10405000880F991F820F931F805C984F0E947D0DDF
:1040600089818F5F89838981833050F38BE597E065
:104070000E947D0D84E697E00E947D0D81E797E028
:104080000E947D0D8AE797E00E947D0D8BE597E009
:1040900090936E0780936D0784E697E09093700786
:1040A00080936F070F90CF91DF910895DF93CF93A7
:1040B000CDB7DEB7CF91DF910895DF93CF9300D0D6
:1040C000CDB7DEB7E0916D07F0916E078081882350
:1040D00039F48FEF9FEF90933C0780933B0713C019
:1040E000E0916D07F0916E070580F681E02D8681E5
:1040F00097819A838983E981FA8182819381909360
:104100003C0780933B070F900F90CF91DF9108956C
:10411000DF93CF9300D0CDB7DEB780913007909179
:1041200031079A83898389819A810F900F90CF916B
:10413000DF910895DF93CF9300D000D0CDB7DEB7E5
:104140009C838B838B819C819A8389838B819C81C7
:10415000009709F473C0E981FA819689E0913007EC
:10416000F09131078689981708F068C0E981FA81D3
:104170008485958599237CF0E0913007F091310793
:104180008689282F30E083E090E0821B930BE98141
:10419000FA8195878487E981FA8142855385E9818F
:1041A000FA818689282F30E0C901880F991F880F6E
:1041B000991F880F991F820F931F805C984F481793
:1041C0005907A1F589819A8102960E94670EE091B4
:1041D0003007F09131078689E981FA81868BE98180
:1041E000FA81968980913507891728F4E981FA8147
:1041F000868980933507E981FA818689282F30E006
:10420000C901880F991F880F991F880F991F820F66
:10421000931FAC01405C584F89819A819C012E5FAD
:104220003F4FCA01B9010E94B70D08C0E0913007A5
:10423000F09131078689E981FA81868B0F900F9082
:104240000F900F90CF91DF910895DF93CF9300D01F
:1042500000D00F92CDB7DEB79D838C838C819D817A
:104260009B838A8319828C819D81009709F456C0B3
:10427000EA81FB81858D8150EA81FB81858FEA810E
:10428000FB819689EA81FB81848D981709F446C0E9
:10429000EA81FB81858D882309F040C08A819B815A
:1042A00002960E94670EEA81FB81848DEA81FB8180
:1042B000868BEA81FB818689282F30E083E090E0BD
:1042C000821B930BEA81FB8195878487EA81FB81BE
:1042D000968980913507891728F4EA81FB818689C0
:1042E00080933507EA81FB818689282F30E0C90158
:1042F000880F991F880F991F880F991F820F931F8E
:10430000AC01405C584F8A819B819C012E5F3F4FDE
:10431000CA01B9010E94B70D81E0898389810F909C
:104320000F900F900F900F90CF91DF910895DF9332
:10433000CF9300D0CDB7DEB7E0913007F0913107D1
:10434000848595859A838983A0913007B091310740
:10435000E0913007F09131078689282F30E083E023
:1043600090E0821B930B1D969C938E931C978981E2
:104370009A810F900F90CF91DF910895DF93CF93A3
:10438000CDB7DEB78091300790913107009739F0B3
:10439000E0913007F0913107858D8F5F858F809197
:1043A000300790913107CF91DF910895DF93CF933C
:1043B000CDB7DEB727970FB6F894DEBF0FBECDBFDF
:1043C0008D837F836E830FB6F8940F92E091300750
:1043D000F0913107868D978DA0A1B1A10097A1051D
:1043E000B10589F4E0913007F091310781E082A3B3
:1043F0008E819F81009739F08E819F8161E00E94BC
:1044000080250E9472100F900FBE0FB6F8940F9285
:10441000E0913007F0913107868D978DA0A1B1A171
:1044200089839A83AB83BC8389819A81AB81BC8168
:104430000097A105B105D9F08D81882349F0E0915D
:104440003007F0913107168E178E10A211A20FC0FF
:10445000E0913007F091310789819A81AB81BC816D
:104460000197A109B109868F978FA0A3B1A3E0910D
:104470003007F091310712A20F900FBE89819A8107
:10448000AB81BC81BC01CD0127960FB6F894DEBF8D
:104490000FBECDBFCF91DF910895EF92FF920F93A2
:1044A0001F93DF93CF93CDB7DEB72D970FB6F89458
:1044B000DEBF0FBECDBF6A837B838C839D832E833B
:1044C0003F83488759871B870A87FD86EC860FB68E
:1044D000F8940F92E0913007F091310782A1823079
:1044E00049F1E0913007F0913107268D378D40A1D9
:1044F00051A18A819B81AC81BD8180959095A095C9
:10450000B09582239323A423B523868F978FA0A3EE
:10451000B1A3E0913007F091310781E082A38C854F
:104520009D85009739F08C859D8561E00E948025EE
:104530000E9472100F900FBE0FB6F8940F928A85EA
:104540009B85009771F0E0913007F0913107868DDF
:10455000978DA0A1B1A1EA85FB8580839183A28379
:10456000B383E0913007F091310782A1813011F4DB
:1045700019821AC0E0913007F0913107268D378DEE
:1045800040A151A18E819F81A885B9858095909584
:10459000A095B09582239323A423B523868F978F6C
:1045A000A0A3B1A381E08983E0913007F0913107A6
:1045B00012A20F900FBE89812D960FB6F894DEBF20
:1045C0000FBECDBFCF91DF911F910F91FF90EF9064
:1045D00008950F931F93DF93CF93CDB7DEB72F9737
:1045E0000FB6F894DEBF0FBECDBF9E838D834F8381
:1045F000588769877A872B871D870C8781E08A8394
:104600008D819E819C838B830FB6F8940F928C854D
:104610009D85009761F0EB81FC81868D978DA0A12F
:10462000B1A1EC85FD8580839183A283B383EB8167
:10463000FC8182A18983EB81FC8182E082A38B854E
:10464000282F30E03F872E878E859F858230910509
:1046500059F12E853F852330310534F48E859F85B1
:104660008130910561F04AC02E853F8523303105A8
:1046700059F18E859F858430910589F13FC0EB818A
:10468000FC81268D378D40A151A18F819885A98508
:10469000BA85822B932BA42BB52BEB81FC81868FC3
:1046A000978FA0A3B1A32AC0EB81FC81868D978D43
:1046B000A0A1B1A10196A11DB11DEB81FC81868F46
:1046C000978FA0A3B1A31AC0EB81FC818F8198853D
:1046D000A985BA85868F978FA0A3B1A30FC08981C2
:1046E000823059F0EB81FC818F819885A985BA854C
:1046F000868F978FA0A3B1A301C01A8289818130D0
:10470000B9F58B819C8102960E94670EEB81FC813A
:10471000968980913507891728F4EB81FC81868979
:1047200080933507EB81FC818689282F30E0C90111
:10473000880F991F880F991F880F991F820F931F49
:10474000AC01405C584F8B819C819C012E5F3F4F98
:10475000CA01B9010E94B70DEB81FC819689E091F5
:104760003007F09131078689891710F40E94721082
:104770000F900FBE8A812F960FB6F894DEBF0FBE42
:10478000CDBFCF91DF911F910F910895EF92FF92CE
:104790000F931F93DF93CF93CDB7DEB762970FB61A
:1047A000F894DEBF0FBECDBF9F838E8348875987A5
:1047B0006A877B872C871E870D87F88AEF8681E0C2
:1047C0008A838E819F819D838C8319828D859E85AE
:1047D000009761F0EC81FD81868D978DA0A1B1A13C
:1047E000ED85FE8580839183A283B383EC81FD8177
:1047F00082A18B83EC81FD8182E082A38C85282FAE
:1048000030E03A8B298B89899A898230910559F158
:1048100029893A892330310534F489899A8981308C
:10482000910561F04AC029893A892330310559F14F
:1048300089899A898430910589F13FC0EC81FD8195
:10484000268D378D40A151A188859985AA85BB8584
:10485000822B932BA42BB52BEC81FD81868F978F18
:10486000A0A3B1A32AC0EC81FD81868D978DA0A164
:10487000B1A10196A11DB11DEC81FD81868F978F9D
:10488000A0A3B1A31AC0EC81FD8188859985AA8572
:10489000BB85868F978FA0A3B1A30FC08B81823079
:1048A00059F0EC81FD8188859985AA85BB85868F25
:1048B000978FA0A3B1A301C01A828B81813009F028
:1048C00050C080913F07882361F58C819D810296BD
:1048D0000E94670EEC81FD819689809135078917CA
:1048E00028F4EC81FD81868980933507EC81FD8178
:1048F0008689282F30E0C901880F991F880F991FDA
:10490000880F991F820F931FAC01405C584F8C8118
:104910009D819C012E5F3F4FCA01B9010E94B70DD6
:104920000AC08C819D819C01245F3F4F81E797E005
:10493000B9010E94B70DEC81FD819689E0913007A5
:10494000F09131078689891760F48F8598890097DF
:1049500029F0EF85F88981E0808303C081E08093AE
:1049600038078A8162960FB6F894DEBF0FBECDBFBE
:10497000CF91DF911F910F91FF90EF900895DF93FA
:10498000CF93CDB7DEB728970FB6F894DEBF0FBE32
:10499000CDBF9E838D8378876F838D819E819C831D
:1049A0008B831982EB81FC8182A18A83EB81FC815C
:1049B00082E082A3EB81FC81868D978DA0A1B1A1BD
:1049C0000196A11DB11DEB81FC81868F978FA0A35D
:1049D000B1A38A81813009F050C080913F078823BC
:1049E00061F58B819C8102960E94670EEB81FC81B0
:1049F000968980913507891728F4EB81FC81868997
:104A000080933507EB81FC818689282F30E0C9012E
:104A1000880F991F880F991F880F991F820F931F66
:104A2000AC01405C584F8B819C819C012E5F3F4FB5
:104A3000CA01B9010E94B70D0AC08B819C819C01FB
:104A4000245F3F4F81E797E0B9010E94B70DEB81EA
:104A5000FC819689E0913007F091310786898917AA
:104A600060F48F819885009729F0EF81F88581E0C7
:104A7000808303C081E08093380728960FB6F894AE
:104A8000DEBF0FBECDBFCF91DF910895DF93CF93EF
:104A9000CDB7DEB727970FB6F894DEBF0FBECDBFF8
:104AA0009D838C838C819D81009739F480913007A0
:104AB000909131079F838E8304C08C819D819F8359
:104AC0008E838E819F819B838A830FB6F8940F9289
:104AD000EA81FB8182A1823031F4EA81FB8112A25A
:104AE00081E0898301C019820F900FBE89812796CA
:104AF0000FB6F894DEBF0FBECDBFCF91DF91089502
:104B0000DF93CF93CDB7DEB727970FB6F894DEBF0C
:104B10000FBECDBF9E838D836F83809133079091AD
:104B200034079A83898380913007909131070296E8
:104B30000E94670E8D819E812FEF8F3F920781F437
:104B40008F81882369F080913007909131079C0113
:104B50002E5F3F4F8AE797E0B9010E94B70D43C02F
:104B600029813A818D819E81820F931F9C838B8343
:104B7000E0913007F09131078B819C819383828390
:104B80002B813C8189819A812817390770F48091A3
:104B90006F079091700720913007309131072E5F99
:104BA0003F4FB9010E94FB0D1EC040916D0750910F
:104BB0006E0780913007909131079C012E5F3F4F27
:104BC000CA01B9010E94FB0D20913B0730913C07BF
:104BD0008B819C818217930730F48B819C81909309
:104BE0003C0780933B0727960FB6F894DEBF0FBEB5
:104BF000CDBFCF91DF910895DF93CF93CDB7DEB7CF
:104C00002E970FB6F894DEBF0FBECDBF82E060E0F6
:104C100041E00E94250882E061E041E00E94250811
:104C200080E090E0A0EAB1E48B879C87AD87BE87E7
:104C30006B857C858D859E8520E030E04AEF54E4CD
:104C40000E941F02DC01CB018F839887A987BA8756
:104C50006F81788589859A8520E030E040E85FE3C0
:104C60000E94790388232CF481E090E09E838D8359
:104C70003FC06F81788589859A8520E03FEF4FE7B7
:104C800057E40E94190318164CF56B857C858D85B9
:104C90009E8520E030E040E251E40E941F02DC01EA
:104CA000CB01BC01CD010E944900DC01CB019E83F8
:104CB0008D830FC088EC90E09C838B838B819C81DB
:104CC0000197F1F79C838B838D819E8101979E8351
:104CD0008D838D819E81009769F714C06F817885DF
:104CE00089859A850E944900DC01CB019E838D83D2
:104CF0008D819E819A83898389819A810197F1F7B9
:104D00009A83898380E06FEF0E94140B88E30E94EE
:104D100098268CE00E94982681E00E9498262E9684
:104D20000FB6F894DEBF0FBECDBFCF91DF910895CF
:104D3000DF93CF93CDB7DEB7E9970FB6F894DEBF18
:104D40000FBECDBF89AF82E060E040E00E94100955
:104D500080E090E0A0E8BFE38DAB9EABAFABB8AF17
:104D60006DA97EA98FA998AD20E030E04AEF54E408
:104D70000E941F02DC01CB0189AB9AABABABBCAB91
:104D800069A97AA98BA99CA920E030E040E85FE3FB
:104D90000E94790388232CF481E090E098AB8FA7E0
:104DA0003FC069A97AA98BA99CA920E03FEF4FE7F2
:104DB00057E40E94190318164CF56DA97EA98FA916
:104DC00098AD20E030E040E251E40E941F02DC0197
:104DD000CB01BC01CD010E944900DC01CB0198ABA5
:104DE0008FA70FC088EC90E09EA78DA78DA59EA5EC
:104DF0000197F1F79EA78DA78FA598A9019798AB6A
:104E00008FA78FA598A9009769F714C069A97AA9F7
:104E10008BA99CA90E944900DC01CB0198AB8FA70C
:104E20008FA598A99CA78BA78BA59CA50197F1F7A7
:104E30009CA78BA782E061E041E00E94100980E01E
:104E400090E0A0E8BFE38FA398A7A9A7BAA76FA196
:104E500078A589A59AA520E030E04AEF54E40E94A5
:104E60001F02DC01CB018BA39CA3ADA3BEA36BA14E
:104E70007CA18DA19EA120E030E040E85FE30E948C
:104E8000790388232CF481E090E09AA389A33FC0A2
:104E90006BA17CA18DA19EA120E03FEF4FE757E4DD
:104EA0000E94190318164CF56FA178A589A59AA53B
:104EB00020E030E040E251E40E941F02DC01CB011F
:104EC000BC01CD010E944900DC01CB019AA389A35A
:104ED0000FC088EC90E098A38F8F8F8D98A10197D9
:104EE000F1F798A38F8F89A19AA101979AA389A31B
:104EF00089A19AA1009769F714C06BA17CA18DA12B
:104F00009EA10E944900DC01CB019AA389A389A13B
:104F10009AA19E8F8D8F8D8D9E8D0197F1F79E8F1B
:104F20008D8F80E069AD0E94580B80E090E0A0E892
:104F3000BFE3898F9A8FAB8FBC8F698D7A8D8B8DF4
:104F40009C8D20E030E04AEF54E40E941F02DC0117
:104F5000CB018D8B9E8BAF8BB88F6D897E898F89AE
:104F6000988D20E030E040E85FE30E9479038823D9
:104F70002CF481E090E09C8B8B8B3FC06D897E8907
:104F80008F89988D20E03FEF4FE757E40E94190387
:104F900018164CF5698D7A8D8B8D9C8D20E030E054
:104FA00040E251E40E941F02DC01CB01BC01CD01B3
:104FB0000E944900DC01CB019C8B8B8B0FC088ECDD
:104FC00090E09A8B898B89899A890197F1F79A8B5E
:104FD000898B8B899C8901979C8B8B8B8B899C8976
:104FE000009769F714C06D897E898F89988D0E941A
:104FF0004900DC01CB019C8B8B8B8B899C89988B26
:105000008F878F8598890197F1F7988B8F8782E03A
:1050100061E040E00E94100980E090E0A0E8BFE37A
:105020008B879C87AD87BE876B857C858D859E85AC
:1050300020E030E04AEF54E40E941F02DC01CB0183
:105040008F839887A987BA876F81788589859A85A4
:1050500020E030E040E85FE30E94790388232CF4ED
:1050600081E090E09E838D833FC06F817885898544
:105070009A8520E03FEF4FE757E40E941903181686
:105080004CF56B857C858D859E8520E030E040E287
:1050900051E40E941F02DC01CB01BC01CD010E9442
:1050A0004900DC01CB019E838D830FC088EC90E02A
:1050B0009C838B838B819C810197F1F79C838B83ED
:1050C0008D819E8101979E838D838D819E81009726
:1050D00069F714C06F81788589859A850E94490097
:1050E000DC01CB019E838D838D819E819A83898390
:1050F00089819A810197F1F79A838983E9960FB69E
:10510000F894DEBF0FBECDBFCF91DF910895DF933E
:10511000CF93CDB7DEB7E9970FB6F894DEBF0FBED9
:10512000CDBF89AF82E060E041E00E94100980E0DD
:1051300090E0A0E8BFE38DAB9EABAFABB8AF6DA97D
:105140007EA98FA998AD20E030E04AEF54E40E9498
:105150001F02DC01CB0189AB9AABABABBCAB69A93D
:105160007AA98BA99CA920E030E040E85FE30E9487
:10517000790388232CF481E090E098AB8FA73FC09F
:1051800069A97AA98BA99CA920E03FEF4FE757E4D2
:105190000E94190318164CF56DA97EA98FA998AD28
:1051A00020E030E040E251E40E941F02DC01CB012C
:1051B000BC01CD010E944900DC01CB0198AB8FA757
:1051C0000FC088EC90E09EA78DA78DA59EA50197A6
:1051D000F1F79EA78DA78FA598A9019798AB8FA7E8
:1051E0008FA598A9009769F714C069A97AA98BA916
:1051F0009CA90E944900DC01CB0198AB8FA78FA529
:1052000098A99CA78BA78BA59CA50197F1F79CA7B4
:105210008BA782E061E041E00E94100980E090E00D
:10522000A0E8BFE38FA398A7A9A7BAA76FA178A505
:1052300089A59AA520E030E04AEF54E40E941F02BD
:10524000DC01CB018BA39CA3ADA3BEA36BA17CA16E
:105250008DA19EA120E030E040E85FE30E94790349
:1052600088232CF481E090E09AA389A33FC06BA12E
:105270007CA18DA19EA120E03FEF4FE757E40E9463
:10528000190318164CF56FA178A589A59AA520E0F9
:1052900030E040E251E40E941F02DC01CB01BC017E
:1052A000CD010E944900DC01CB019AA389A30FC064
:1052B00088EC90E098A38F8F8F8D98A10197F1F7DC
:1052C00098A38F8F89A19AA101979AA389A389A1F5
:1052D0009AA1009769F714C06BA17CA18DA19EA132
:1052E0000E944900DC01CB019AA389A389A19AA15C
:1052F0009E8F8D8F8D8D9E8D0197F1F79E8F8D8F57
:1053000080E069AD0E94580B80E090E0A0E8BFE328
:10531000898F9A8FAB8FBC8F698D7A8D8B8D9C8D89
:1053200020E030E04AEF54E40E941F02DC01CB0190
:105330008D8B9E8BAF8BB88F6D897E898F89988D71
:1053400020E030E040E85FE30E94790388232CF4FA
:1053500081E090E09C8B8B8B3FC06D897E898F892B
:10536000988D20E03FEF4FE757E40E94190318168D
:105370004CF5698D7A8D8B8D9C8D20E030E040E27C
:1053800051E40E941F02DC01CB01BC01CD010E944F
:105390004900DC01CB019C8B8B8B0FC088EC90E02B
:1053A0009A8B898B89899A890197F1F79A8B898BD6
:1053B0008B899C8901979C8B8B8B8B899C8900970F
:1053C00069F714C06D897E898F89988D0E94490084
:1053D000DC01CB019C8B8B8B8B899C89988B8F8775
:1053E0008F8598890197F1F7988B8F8782E061E02C
:1053F00040E00E94100980E090E0A0E8BFE38B87C6
:105400009C87AD87BE876B857C858D859E8520E0DA
:1054100030E04AEF54E40E941F02DC01CB018F838D
:105420009887A987BA876F81788589859A8520E0D2
:1054300030E040E85FE30E94790388232CF481E0A8
:1054400090E09E838D833FC06F81788589859A85A2
:1054500020E03FEF4FE757E40E94190318164CF580
:105460006B857C858D859E8520E030E040E251E4AF
:105470000E941F02DC01CB01BC01CD010E9449004A
:10548000DC01CB019E838D830FC088EC90E09C8370
:105490008B838B819C810197F1F79C838B838D811A
:1054A0009E8101979E838D838D819E81009769F7F0
:1054B00014C06F81788589859A850E944900DC0136
:1054C000CB019E838D838D819E819A83898389817F
:1054D0009A810197F1F79A838983E9960FB6F89438
:1054E000DEBF0FBECDBFCF91DF910895DF93CF9385
:1054F00000D00F92CDB7DEB79B838A8319820EC08E
:105500008981282F30E08A819B81FC01E20FF31F03
:1055100080810E94872889818F5F89838981282FD4
:1055200030E08A819B81FC01E20FF31F8081882398
:1055300039F70F900F900F90CF91DF910895DF937F
:10554000CF9300D000D00F92CDB7DEB78A836B83A4
:105550008A81282F30E03D832C838C819D8181308E
:105560009105C1F02C813D81223031052CF48C81D4
:105570009D81009761F019C02C813D812230310559
:1055800069F08C819D818330910561F00EC08B8123
:1055900089830BC08B81805C898307C08B81805F8E
:1055A000898303C08B81805B8983898180680E94A5
:1055B00098260F900F900F900F900F90CF91DF9142
:1055C0000895DF93CF9300D000D0CDB7DEB78983A5
:1055D0006A835C834B8389816A810E949F2A8B81C5
:1055E0009C810E94762A0F900F900F900F90CF9180
:1055F000DF910895DF93CF93CDB7DEB781E00E94AE
:105600009826CF91DF910895DF93CF93CDB7DEB782
:105610008DE00E949826CF91DF910895DF93CF937C
:10562000CDB7DEB768970FB6F894DEBF0FBECDBF1B
:105630006D8B7E8B8F8B988F8D899E89AF89B88D6E
:10564000BC01CD019E012F5F3F4FA9012AE030E050
:105650000E944230CE0101960E94762A68960FB6CB
:10566000F894DEBF0FBECDBFCF91DF910895DF93D9
:10567000CF9300D0CDB7DEB71A82198208C081E07F
:10568000698140E00E94250889818F5F8983898133
:105690008430A8F30BC08A81982F9C5F81E0692F2A
:1056A00040E00E9425088A818F5F8A838A81843046
:1056B00090F30F900F90CF91DF910895DF93CF93E8
:1056C00000D0CDB7DEB79A83898389819A81909380
:1056D0008407809383070F900F90CF91DF910895F7
:1056E000DF93CF93CDB7DEB76F970FB6F894DEBFD9
:1056F0000FBECDBF1F8E1E8E8FEF8D8F29C181E013
:105700006E8D41E00E94250881E06E8D40E00E9490
:1057100010091F8E9FC08F8D982F9C5F81E0692F8D
:105720000E94800A882309F092C080E090E0A0EAFD
:10573000B1E4898F9A8FAB8FBC8F698D7A8D8B8DF9
:105740009C8D20E030E04AEF54E40E941F02DC010F
:10575000CB018D8B9E8BAF8BB88F6D897E898F89A6
:10576000988D20E030E040E85FE30E9479038823D1
:105770002CF481E090E09C8B8B8B3FC06D897E89FF
:105780008F89988D20E03FEF4FE757E40E9419037F
:1057900018164CF5698D7A8D8B8D9C8D20E030E04C
:1057A00040E251E40E941F02DC01CB01BC01CD01AB
:1057B0000E944900DC01CB019C8B8B8B0FC088ECD5
:1057C00090E09A8B898B89899A890197F1F79A8B56
:1057D000898B8B899C8901979C8B8B8B8B899C896E
:1057E000009769F714C06D897E898F89988D0E9412
:1057F0004900DC01CB019C8B8B8B8B899C89988B1E
:105800008F878F8598890197F1F7988B8F878F8D78
:10581000982F9C5F81E0692F0E94800A8823B9F34A
:1058200040918307509184078E8D882F90E09C01D2
:10583000220F331F220F331F8F8D882F90E0820F8E
:10584000931FFA01E80FF91F80818D8F07C08F8D9C
:105850008F5F8F8F8F8D843008F45DCF81E06E8DE8
:1058600040E00E94250880E090E0A0EAB0E48B8749
:105870009C87AD87BE876B857C858D859E8520E066
:1058800030E04AEF54E40E941F02DC01CB018F8319
:105890009887A987BA876F81788589859A8520E05E
:1058A00030E040E85FE30E94790388232CF481E034
:1058B00090E09E838D833FC06F81788589859A852E
:1058C00020E03FEF4FE757E40E94190318164CF50C
:1058D0006B857C858D859E8520E030E040E251E43B
:1058E0000E941F02DC01CB01BC01CD010E944900D6
:1058F000DC01CB019E838D830FC088EC90E09C83FC
:105900008B838B819C810197F1F79C838B838D81A5
:105910009E8101979E838D838D819E81009769F77B
:1059200014C06F81788589859A850E944900DC01C1
:10593000CB019E838D838D819E819A83898389810A
:105940009A810197F1F79A8389838E8D8F5F8E8F6D
:105950008E8D843008F4D3CE8D8D6F960FB6F8946B
:10596000DEBF0FBECDBFCF91DF910895DF93CF9300
:105970000F92CDB7DEB78FEF898303C00E94702BE3
:10598000898389818F3FD1F389810F90CF91DF91F6
:105990000895DF93CF9300D000D0CDB7DEB79B83BF
:1059A0008A830E94942E0E94B22E0E94FA2A25E633
:1059B00030E080E061E0A9010E94E12A23E730E0C5
:1059C00081E061E0A9010E94E12A0E94B62C809347
:1059D0008707809187078D3221F0809187078B326E
:1059E00021F7809187078B3219F48BE28C8302C0F8
:1059F0008DE28C838C8180938507809187078983D2
:105A000080918A0790918B0725E837E0B90144E13E
:105A100050E020E00E94D9120E94CF2D813029F65B
:105A200089818B3219F40E94EB2EBFCF0E943C2E4D
:105A3000813009F0BACF83E890E00E94762A84EFA3
:105A400091E00E947A19B1CFDF93CF930F92CDB737
:105A5000DEB788E08093850780918A0790918B0755
:105A600025E837E0B90144E150E020E00E94D91276
:105A70000E94FA2A80E990E00E94762A2EE930E01E
:105A800081E060E0A9010E94E12A8CE3898318C0CB
:105A900081E069E00E949F2A8981882F90E0A0E040
:105AA000B0E0BC01CD010E940E2B87EA90E00E947D
:105AB000762A88EE93E00E947A1989818150898341
:105AC0008981882329F789E08093850780918A0757
:105AD00090918B0725E837E0B90144E150E020E0E0
